{
  "_format": "hh-sol-artifact-1",
  "contractName": "VolcanoToken",
  "sourceName": "contracts/VolcanoToken.sol",
  "abi": [
    {
      "anonymous": false,
      "inputs": [
        {
          "indexed": true,
          "internalType": "address",
          "name": "owner",
          "type": "address"
        },
        {
          "indexed": true,
          "internalType": "address",
          "name": "approved",
          "type": "address"
        },
        {
          "indexed": true,
          "internalType": "uint256",
          "name": "tokenId",
          "type": "uint256"
        }
      ],
      "name": "Approval",
      "type": "event"
    },
    {
      "anonymous": false,
      "inputs": [
        {
          "indexed": true,
          "internalType": "address",
          "name": "owner",
          "type": "address"
        },
        {
          "indexed": true,
          "internalType": "address",
          "name": "operator",
          "type": "address"
        },
        {
          "indexed": false,
          "internalType": "bool",
          "name": "approved",
          "type": "bool"
        }
      ],
      "name": "ApprovalForAll",
      "type": "event"
    },
    {
      "anonymous": false,
      "inputs": [
        {
          "indexed": true,
          "internalType": "address",
          "name": "previousOwner",
          "type": "address"
        },
        {
          "indexed": true,
          "internalType": "address",
          "name": "newOwner",
          "type": "address"
        }
      ],
      "name": "OwnershipTransferred",
      "type": "event"
    },
    {
      "anonymous": false,
      "inputs": [
        {
          "indexed": true,
          "internalType": "address",
          "name": "from",
          "type": "address"
        },
        {
          "indexed": true,
          "internalType": "address",
          "name": "to",
          "type": "address"
        },
        {
          "indexed": true,
          "internalType": "uint256",
          "name": "tokenId",
          "type": "uint256"
        }
      ],
      "name": "Transfer",
      "type": "event"
    },
    {
      "inputs": [
        {
          "internalType": "address",
          "name": "to",
          "type": "address"
        },
        {
          "internalType": "uint256",
          "name": "tokenId",
          "type": "uint256"
        }
      ],
      "name": "approve",
      "outputs": [],
      "stateMutability": "nonpayable",
      "type": "function"
    },
    {
      "inputs": [
        {
          "internalType": "address",
          "name": "owner",
          "type": "address"
        }
      ],
      "name": "balanceOf",
      "outputs": [
        {
          "internalType": "uint256",
          "name": "",
          "type": "uint256"
        }
      ],
      "stateMutability": "view",
      "type": "function"
    },
    {
      "inputs": [
        {
          "internalType": "uint256",
          "name": "_tokenId",
          "type": "uint256"
        }
      ],
      "name": "burn",
      "outputs": [],
      "stateMutability": "nonpayable",
      "type": "function"
    },
    {
      "inputs": [
        {
          "internalType": "uint256",
          "name": "tokenId",
          "type": "uint256"
        }
      ],
      "name": "getApproved",
      "outputs": [
        {
          "internalType": "address",
          "name": "",
          "type": "address"
        }
      ],
      "stateMutability": "view",
      "type": "function"
    },
    {
      "inputs": [],
      "name": "getCurrentTokenId",
      "outputs": [
        {
          "internalType": "uint256",
          "name": "",
          "type": "uint256"
        }
      ],
      "stateMutability": "view",
      "type": "function"
    },
    {
      "inputs": [
        {
          "internalType": "uint8",
          "name": "index",
          "type": "uint8"
        }
      ],
      "name": "getMeta",
      "outputs": [
        {
          "components": [
            {
              "internalType": "uint256",
              "name": "timestamp",
              "type": "uint256"
            },
            {
              "internalType": "uint256",
              "name": "id",
              "type": "uint256"
            },
            {
              "internalType": "string",
              "name": "tokenURI",
              "type": "string"
            }
          ],
          "internalType": "struct VolcanoToken.Meta",
          "name": "",
          "type": "tuple"
        }
      ],
      "stateMutability": "view",
      "type": "function"
    },
    {
      "inputs": [],
      "name": "getMetas",
      "outputs": [
        {
          "components": [
            {
              "internalType": "uint256",
              "name": "timestamp",
              "type": "uint256"
            },
            {
              "internalType": "uint256",
              "name": "id",
              "type": "uint256"
            },
            {
              "internalType": "string",
              "name": "tokenURI",
              "type": "string"
            }
          ],
          "internalType": "struct VolcanoToken.Meta[]",
          "name": "",
          "type": "tuple[]"
        }
      ],
      "stateMutability": "view",
      "type": "function"
    },
    {
      "inputs": [
        {
          "internalType": "address",
          "name": "owner",
          "type": "address"
        },
        {
          "internalType": "address",
          "name": "operator",
          "type": "address"
        }
      ],
      "name": "isApprovedForAll",
      "outputs": [
        {
          "internalType": "bool",
          "name": "",
          "type": "bool"
        }
      ],
      "stateMutability": "view",
      "type": "function"
    },
    {
      "inputs": [
        {
          "internalType": "string",
          "name": "uri",
          "type": "string"
        }
      ],
      "name": "mint",
      "outputs": [],
      "stateMutability": "nonpayable",
      "type": "function"
    },
    {
      "inputs": [],
      "name": "name",
      "outputs": [
        {
          "internalType": "string",
          "name": "",
          "type": "string"
        }
      ],
      "stateMutability": "view",
      "type": "function"
    },
    {
      "inputs": [],
      "name": "owner",
      "outputs": [
        {
          "internalType": "address",
          "name": "",
          "type": "address"
        }
      ],
      "stateMutability": "view",
      "type": "function"
    },
    {
      "inputs": [
        {
          "internalType": "uint256",
          "name": "tokenId",
          "type": "uint256"
        }
      ],
      "name": "ownerOf",
      "outputs": [
        {
          "internalType": "address",
          "name": "",
          "type": "address"
        }
      ],
      "stateMutability": "view",
      "type": "function"
    },
    {
      "inputs": [
        {
          "internalType": "address",
          "name": "",
          "type": "address"
        },
        {
          "internalType": "uint256",
          "name": "",
          "type": "uint256"
        }
      ],
      "name": "ownerships",
      "outputs": [
        {
          "internalType": "uint256",
          "name": "timestamp",
          "type": "uint256"
        },
        {
          "internalType": "uint256",
          "name": "id",
          "type": "uint256"
        },
        {
          "internalType": "string",
          "name": "tokenURI",
          "type": "string"
        }
      ],
      "stateMutability": "view",
      "type": "function"
    },
    {
      "inputs": [],
      "name": "renounceOwnership",
      "outputs": [],
      "stateMutability": "nonpayable",
      "type": "function"
    },
    {
      "inputs": [
        {
          "internalType": "address",
          "name": "from",
          "type": "address"
        },
        {
          "internalType": "address",
          "name": "to",
          "type": "address"
        },
        {
          "internalType": "uint256",
          "name": "tokenId",
          "type": "uint256"
        }
      ],
      "name": "safeTransferFrom",
      "outputs": [],
      "stateMutability": "nonpayable",
      "type": "function"
    },
    {
      "inputs": [
        {
          "internalType": "address",
          "name": "from",
          "type": "address"
        },
        {
          "internalType": "address",
          "name": "to",
          "type": "address"
        },
        {
          "internalType": "uint256",
          "name": "tokenId",
          "type": "uint256"
        },
        {
          "internalType": "bytes",
          "name": "_data",
          "type": "bytes"
        }
      ],
      "name": "safeTransferFrom",
      "outputs": [],
      "stateMutability": "nonpayable",
      "type": "function"
    },
    {
      "inputs": [
        {
          "internalType": "address",
          "name": "operator",
          "type": "address"
        },
        {
          "internalType": "bool",
          "name": "approved",
          "type": "bool"
        }
      ],
      "name": "setApprovalForAll",
      "outputs": [],
      "stateMutability": "nonpayable",
      "type": "function"
    },
    {
      "inputs": [
        {
          "internalType": "bytes4",
          "name": "interfaceId",
          "type": "bytes4"
        }
      ],
      "name": "supportsInterface",
      "outputs": [
        {
          "internalType": "bool",
          "name": "",
          "type": "bool"
        }
      ],
      "stateMutability": "view",
      "type": "function"
    },
    {
      "inputs": [],
      "name": "symbol",
      "outputs": [
        {
          "internalType": "string",
          "name": "",
          "type": "string"
        }
      ],
      "stateMutability": "view",
      "type": "function"
    },
    {
      "inputs": [],
      "name": "tokenId",
      "outputs": [
        {
          "internalType": "uint256",
          "name": "",
          "type": "uint256"
        }
      ],
      "stateMutability": "view",
      "type": "function"
    },
    {
      "inputs": [
        {
          "internalType": "uint256",
          "name": "tokenId",
          "type": "uint256"
        }
      ],
      "name": "tokenURI",
      "outputs": [
        {
          "internalType": "string",
          "name": "",
          "type": "string"
        }
      ],
      "stateMutability": "view",
      "type": "function"
    },
    {
      "inputs": [
        {
          "internalType": "address",
          "name": "from",
          "type": "address"
        },
        {
          "internalType": "address",
          "name": "to",
          "type": "address"
        },
        {
          "internalType": "uint256",
          "name": "tokenId",
          "type": "uint256"
        }
      ],
      "name": "transferFrom",
      "outputs": [],
      "stateMutability": "nonpayable",
      "type": "function"
    },
    {
      "inputs": [
        {
          "internalType": "address",
          "name": "newOwner",
          "type": "address"
        }
      ],
      "name": "transferOwnership",
      "outputs": [],
      "stateMutability": "nonpayable",
      "type": "function"
    }
  ],
  "bytecode": "0x608060405260006007553480156200001657600080fd5b506040518060400160405280600c81526020017f566f6c63616e6f546f6b656e00000000000000000000000000000000000000008152506040518060400160405280600381526020017f566f540000000000000000000000000000000000000000000000000000000000815250620000a362000097620000dd60201b60201c565b620000e560201b60201c565b8160019080519060200190620000bb929190620001a9565b508060029080519060200190620000d4929190620001a9565b505050620002be565b600033905090565b60008060009054906101000a900473ffffffffffffffffffffffffffffffffffffffff169050816000806101000a81548173ffffffffffffffffffffffffffffffffffffffff021916908373ffffffffffffffffffffffffffffffffffffffff1602179055508173ffffffffffffffffffffffffffffffffffffffff168173ffffffffffffffffffffffffffffffffffffffff167f8be0079c531659141344cd1fd0a4f28419497f9722a3daafe3b4186f6b6457e060405160405180910390a35050565b828054620001b79062000259565b90600052602060002090601f016020900481019282620001db576000855562000227565b82601f10620001f657805160ff191683800117855562000227565b8280016001018555821562000227579182015b828111156200022657825182559160200191906001019062000209565b5b5090506200023691906200023a565b5090565b5b80821115620002555760008160009055506001016200023b565b5090565b600060028204905060018216806200027257607f821691505b602082108114156200028957620002886200028f565b5b50919050565b7f4e487b7100000000000000000000000000000000000000000000000000000000600052602260045260246000fd5b6138b680620002ce6000396000f3fe608060405234801561001057600080fd5b506004361061014d5760003560e01c806367054ecf116100c3578063b88d4fde1161007c578063b88d4fde1461038c578063c87b56dd146103a8578063d85d3d27146103d8578063e985e9c5146103f4578063f2fde38b14610424578063fdf896da146104405761014d565b806367054ecf146102ca57806370a08231146102fa578063715018a61461032a5780638da5cb5b1461033457806395d89b4114610352578063a22cb465146103705761014d565b806323b872dd1161011557806323b872dd1461020a578063424ee9e41461022657806342842e0e1461024457806342966c6814610260578063561892361461027c5780636352211e1461029a5761014d565b806301ffc9a71461015257806306fdde0314610182578063081812fc146101a0578063095ea7b3146101d057806317d70f7c146101ec575b600080fd5b61016c60048036038101906101679190612745565b610472565b6040516101799190613120565b60405180910390f35b61018a610554565b604051610197919061313b565b60405180910390f35b6101ba60048036038101906101b591906127d8565b6105e6565b6040516101c79190613097565b60405180910390f35b6101ea60048036038101906101e59190612709565b61066b565b005b6101f4610783565b604051610201919061339f565b60405180910390f35b610224600480360381019061021f9190612603565b610789565b005b61022e6107e9565b60405161023b91906130fe565b60405180910390f35b61025e60048036038101906102599190612603565b610932565b005b61027a600480360381019061027591906127d8565b610952565b005b6102846109e4565b604051610291919061339f565b60405180910390f35b6102b460048036038101906102af91906127d8565b6109ee565b6040516102c19190613097565b60405180910390f35b6102e460048036038101906102df9190612801565b610aa0565b6040516102f1919061337d565b60405180910390f35b610314600480360381019061030f919061259e565b610bef565b604051610321919061339f565b60405180910390f35b610332610ca7565b005b61033c610d2f565b6040516103499190613097565b60405180910390f35b61035a610d58565b604051610367919061313b565b60405180910390f35b61038a600480360381019061038591906126cd565b610dea565b005b6103a660048036038101906103a19190612652565b610f6b565b005b6103c260048036038101906103bd91906127d8565b610fcd565b6040516103cf919061313b565b60405180910390f35b6103f260048036038101906103ed9190612797565b611074565b005b61040e600480360381019061040991906125c7565b611161565b60405161041b9190613120565b60405180910390f35b61043e6004803603810190610439919061259e565b6111f5565b005b61045a60048036038101906104559190612709565b6112ed565b604051610469939291906133ba565b60405180910390f35b60007f80ac58cd000000000000000000000000000000000000000000000000000000007bffffffffffffffffffffffffffffffffffffffffffffffffffffffff1916827bffffffffffffffffffffffffffffffffffffffffffffffffffffffff1916148061053d57507f5b5e139f000000000000000000000000000000000000000000000000000000007bffffffffffffffffffffffffffffffffffffffffffffffffffffffff1916827bffffffffffffffffffffffffffffffffffffffffffffffffffffffff1916145b8061054d575061054c826113bc565b5b9050919050565b60606001805461056390613694565b80601f016020809104026020016040519081016040528092919081815260200182805461058f90613694565b80156105dc5780601f106105b1576101008083540402835291602001916105dc565b820191906000526020600020905b8154815290600101906020018083116105bf57829003601f168201915b5050505050905090565b60006105f182611426565b610630576040517f08c379a0000000000000000000000000000000000000000000000000000000008152600401610627906132bd565b60405180910390fd5b6005600083815260200190815260200160002060009054906101000a900473ffffffffffffffffffffffffffffffffffffffff169050919050565b6000610676826109ee565b90508073ffffffffffffffffffffffffffffffffffffffff168373ffffffffffffffffffffffffffffffffffffffff1614156106e7576040517f08c379a00000000000000000000000000000000000000000000000000000000081526004016106de9061333d565b60405180910390fd5b8073ffffffffffffffffffffffffffffffffffffffff16610706611492565b73ffffffffffffffffffffffffffffffffffffffff16148061073557506107348161072f611492565b611161565b5b610774576040517f08c379a000000000000000000000000000000000000000000000000000000000815260040161076b9061323d565b60405180910390fd5b61077e838361149a565b505050565b60075481565b61079a610794611492565b82611553565b6107d9576040517f08c379a00000000000000000000000000000000000000000000000000000000081526004016107d09061335d565b60405180910390fd5b6107e4838383611631565b505050565b6060600860006107f7611492565b73ffffffffffffffffffffffffffffffffffffffff1673ffffffffffffffffffffffffffffffffffffffff168152602001908152602001600020805480602002602001604051908101604052809291908181526020016000905b828210156109295783829060005260206000209060030201604051806060016040529081600082015481526020016001820154815260200160028201805461089890613694565b80601f01602080910402602001604051908101604052809291908181526020018280546108c490613694565b80156109115780601f106108e657610100808354040283529160200191610911565b820191906000526020600020905b8154815290600101906020018083116108f457829003601f168201915b50505050508152505081526020019060010190610851565b50505050905090565b61094d83838360405180602001604052806000815250610f6b565b505050565b61095b816109ee565b73ffffffffffffffffffffffffffffffffffffffff16610979611492565b73ffffffffffffffffffffffffffffffffffffffff16146109cf576040517f08c379a00000000000000000000000000000000000000000000000000000000081526004016109c6906131bd565b60405180910390fd5b6109d88161188d565b6109e18161199e565b50565b6000600754905090565b6000806003600084815260200190815260200160002060009054906101000a900473ffffffffffffffffffffffffffffffffffffffff169050600073ffffffffffffffffffffffffffffffffffffffff168173ffffffffffffffffffffffffffffffffffffffff161415610a97576040517f08c379a0000000000000000000000000000000000000000000000000000000008152600401610a8e9061327d565b60405180910390fd5b80915050919050565b610aa86121fc565b60086000610ab4611492565b73ffffffffffffffffffffffffffffffffffffffff1673ffffffffffffffffffffffffffffffffffffffff1681526020019081526020016000208260ff1681548110610b29577f4e487b7100000000000000000000000000000000000000000000000000000000600052603260045260246000fd5b90600052602060002090600302016040518060600160405290816000820154815260200160018201548152602001600282018054610b6690613694565b80601f0160208091040260200160405190810160405280929190818152602001828054610b9290613694565b8015610bdf5780601f10610bb457610100808354040283529160200191610bdf565b820191906000526020600020905b815481529060010190602001808311610bc257829003601f168201915b5050505050815250509050919050565b60008073ffffffffffffffffffffffffffffffffffffffff168273ffffffffffffffffffffffffffffffffffffffff161415610c60576040517f08c379a0000000000000000000000000000000000000000000000000000000008152600401610c579061325d565b60405180910390fd5b600460008373ffffffffffffffffffffffffffffffffffffffff1673ffffffffffffffffffffffffffffffffffffffff168152602001908152602001600020549050919050565b610caf611492565b73ffffffffffffffffffffffffffffffffffffffff16610ccd610d2f565b73ffffffffffffffffffffffffffffffffffffffff1614610d23576040517f08c379a0000000000000000000000000000000000000000000000000000000008152600401610d1a906132dd565b60405180910390fd5b610d2d6000611b22565b565b60008060009054906101000a900473ffffffffffffffffffffffffffffffffffffffff16905090565b606060028054610d6790613694565b80601f0160208091040260200160405190810160405280929190818152602001828054610d9390613694565b8015610de05780601f10610db557610100808354040283529160200191610de0565b820191906000526020600020905b815481529060010190602001808311610dc357829003601f168201915b5050505050905090565b610df2611492565b73ffffffffffffffffffffffffffffffffffffffff168273ffffffffffffffffffffffffffffffffffffffff161415610e60576040517f08c379a0000000000000000000000000000000000000000000000000000000008152600401610e57906131fd565b60405180910390fd5b8060066000610e6d611492565b73ffffffffffffffffffffffffffffffffffffffff1673ffffffffffffffffffffffffffffffffffffffff16815260200190815260200160002060008473ffffffffffffffffffffffffffffffffffffffff1673ffffffffffffffffffffffffffffffffffffffff16815260200190815260200160002060006101000a81548160ff0219169083151502179055508173ffffffffffffffffffffffffffffffffffffffff16610f1a611492565b73ffffffffffffffffffffffffffffffffffffffff167f17307eab39ab6107e8899845ad3d59bd9653f200f220920489ca2b5937696c3183604051610f5f9190613120565b60405180910390a35050565b610f7c610f76611492565b83611553565b610fbb576040517f08c379a0000000000000000000000000000000000000000000000000000000008152600401610fb29061335d565b60405180910390fd5b610fc784848484611be6565b50505050565b6060610fd882611426565b611017576040517f08c379a000000000000000000000000000000000000000000000000000000000815260040161100e9061331d565b60405180910390fd5b6000611021611c42565b90506000815111611041576040518060200160405280600081525061106c565b8061104b84611c59565b60405160200161105c929190613073565b6040516020818303038152906040525b915050919050565b60076000815480929190611087906136c6565b919050555061109f611097611492565b600754611e06565b600860006110ab611492565b73ffffffffffffffffffffffffffffffffffffffff1673ffffffffffffffffffffffffffffffffffffffff168152602001908152602001600020604051806060016040528042815260200160075481526020018381525090806001815401808255809150506001900390600052602060002090600302016000909190919091506000820151816000015560208201518160010155604082015181600201908051906020019061115b92919061221d565b50505050565b6000600660008473ffffffffffffffffffffffffffffffffffffffff1673ffffffffffffffffffffffffffffffffffffffff16815260200190815260200160002060008373ffffffffffffffffffffffffffffffffffffffff1673ffffffffffffffffffffffffffffffffffffffff16815260200190815260200160002060009054906101000a900460ff16905092915050565b6111fd611492565b73ffffffffffffffffffffffffffffffffffffffff1661121b610d2f565b73ffffffffffffffffffffffffffffffffffffffff1614611271576040517f08c379a0000000000000000000000000000000000000000000000000000000008152600401611268906132dd565b60405180910390fd5b600073ffffffffffffffffffffffffffffffffffffffff168173ffffffffffffffffffffffffffffffffffffffff1614156112e1576040517f08c379a00000000000000000000000000000000000000000000000000000000081526004016112d89061317d565b60405180910390fd5b6112ea81611b22565b50565b6008602052816000526040600020818154811061130957600080fd5b90600052602060002090600302016000915091505080600001549080600101549080600201805461133990613694565b80601f016020809104026020016040519081016040528092919081815260200182805461136590613694565b80156113b25780601f10611387576101008083540402835291602001916113b2565b820191906000526020600020905b81548152906001019060200180831161139557829003601f168201915b5050505050905083565b60007f01ffc9a7000000000000000000000000000000000000000000000000000000007bffffffffffffffffffffffffffffffffffffffffffffffffffffffff1916827bffffffffffffffffffffffffffffffffffffffffffffffffffffffff1916149050919050565b60008073ffffffffffffffffffffffffffffffffffffffff166003600084815260200190815260200160002060009054906101000a900473ffffffffffffffffffffffffffffffffffffffff1673ffffffffffffffffffffffffffffffffffffffff1614159050919050565b600033905090565b816005600083815260200190815260200160002060006101000a81548173ffffffffffffffffffffffffffffffffffffffff021916908373ffffffffffffffffffffffffffffffffffffffff160217905550808273ffffffffffffffffffffffffffffffffffffffff1661150d836109ee565b73ffffffffffffffffffffffffffffffffffffffff167f8c5be1e5ebec7d5bd14f71427d1e84f3dd0314c0f7b2291e5b200ac8c7c3b92560405160405180910390a45050565b600061155e82611426565b61159d576040517f08c379a00000000000000000000000000000000000000000000000000000000081526004016115949061321d565b60405180910390fd5b60006115a8836109ee565b90508073ffffffffffffffffffffffffffffffffffffffff168473ffffffffffffffffffffffffffffffffffffffff16148061161757508373ffffffffffffffffffffffffffffffffffffffff166115ff846105e6565b73ffffffffffffffffffffffffffffffffffffffff16145b8061162857506116278185611161565b5b91505092915050565b8273ffffffffffffffffffffffffffffffffffffffff16611651826109ee565b73ffffffffffffffffffffffffffffffffffffffff16146116a7576040517f08c379a000000000000000000000000000000000000000000000000000000000815260040161169e906132fd565b60405180910390fd5b600073ffffffffffffffffffffffffffffffffffffffff168273ffffffffffffffffffffffffffffffffffffffff161415611717576040517f08c379a000000000000000000000000000000000000000000000000000000000815260040161170e906131dd565b60405180910390fd5b611722838383611e24565b61172d60008261149a565b6001600460008573ffffffffffffffffffffffffffffffffffffffff1673ffffffffffffffffffffffffffffffffffffffff168152602001908152602001600020600082825461177d919061359d565b925050819055506001600460008473ffffffffffffffffffffffffffffffffffffffff1673ffffffffffffffffffffffffffffffffffffffff16815260200190815260200160002060008282546117d49190613516565b92505081905550816003600083815260200190815260200160002060006101000a81548173ffffffffffffffffffffffffffffffffffffffff021916908373ffffffffffffffffffffffffffffffffffffffff160217905550808273ffffffffffffffffffffffffffffffffffffffff168473ffffffffffffffffffffffffffffffffffffffff167fddf252ad1be2c89b69c2b068fc378daa952ba7f163c4a11628f55a4df523b3ef60405160405180910390a4505050565b6000611898826109ee565b90506118a681600084611e24565b6118b160008361149a565b6001600460008373ffffffffffffffffffffffffffffffffffffffff1673ffffffffffffffffffffffffffffffffffffffff1681526020019081526020016000206000828254611901919061359d565b925050819055506003600083815260200190815260200160002060006101000a81549073ffffffffffffffffffffffffffffffffffffffff021916905581600073ffffffffffffffffffffffffffffffffffffffff168273ffffffffffffffffffffffffffffffffffffffff167fddf252ad1be2c89b69c2b068fc378daa952ba7f163c4a11628f55a4df523b3ef60405160405180910390a45050565b6000600860006119ac611492565b73ffffffffffffffffffffffffffffffffffffffff1673ffffffffffffffffffffffffffffffffffffffff168152602001908152602001600020905060005b8180549050811015611b1d5782828281548110611a31577f4e487b7100000000000000000000000000000000000000000000000000000000600052603260045260246000fd5b9060005260206000209060030201600101541415611b0a57818181548110611a82577f4e487b7100000000000000000000000000000000000000000000000000000000600052603260045260246000fd5b90600052602060002090600302016000808201600090556001820160009055600282016000611ab191906122a3565b50508160086000611ac0611492565b73ffffffffffffffffffffffffffffffffffffffff1673ffffffffffffffffffffffffffffffffffffffff168152602001908152602001600020908054611b089291906122e3565b505b8080611b15906136c6565b9150506119eb565b505050565b60008060009054906101000a900473ffffffffffffffffffffffffffffffffffffffff169050816000806101000a81548173ffffffffffffffffffffffffffffffffffffffff021916908373ffffffffffffffffffffffffffffffffffffffff1602179055508173ffffffffffffffffffffffffffffffffffffffff168173ffffffffffffffffffffffffffffffffffffffff167f8be0079c531659141344cd1fd0a4f28419497f9722a3daafe3b4186f6b6457e060405160405180910390a35050565b611bf1848484611631565b611bfd84848484611e29565b611c3c576040517f08c379a0000000000000000000000000000000000000000000000000000000008152600401611c339061315d565b60405180910390fd5b50505050565b606060405180602001604052806000815250905090565b60606000821415611ca1576040518060400160405280600181526020017f30000000000000000000000000000000000000000000000000000000000000008152509050611e01565b600082905060005b60008214611cd3578080611cbc906136c6565b915050600a82611ccc919061356c565b9150611ca9565b60008167ffffffffffffffff811115611d15577f4e487b7100000000000000000000000000000000000000000000000000000000600052604160045260246000fd5b6040519080825280601f01601f191660200182016040528015611d475781602001600182028036833780820191505090505b5090505b60008514611dfa57600182611d60919061359d565b9150600a85611d6f919061370f565b6030611d7b9190613516565b60f81b818381518110611db7577f4e487b7100000000000000000000000000000000000000000000000000000000600052603260045260246000fd5b60200101907effffffffffffffffffffffffffffffffffffffffffffffffffffffffffffff1916908160001a905350600a85611df3919061356c565b9450611d4b565b8093505050505b919050565b611e20828260405180602001604052806000815250611fc0565b5050565b505050565b6000611e4a8473ffffffffffffffffffffffffffffffffffffffff1661201b565b15611fb3578373ffffffffffffffffffffffffffffffffffffffff1663150b7a02611e73611492565b8786866040518563ffffffff1660e01b8152600401611e9594939291906130b2565b602060405180830381600087803b158015611eaf57600080fd5b505af1925050508015611ee057506040513d601f19601f82011682018060405250810190611edd919061276e565b60015b611f63573d8060008114611f10576040519150601f19603f3d011682016040523d82523d6000602084013e611f15565b606091505b50600081511415611f5b576040517f08c379a0000000000000000000000000000000000000000000000000000000008152600401611f529061315d565b60405180910390fd5b805181602001fd5b63150b7a0260e01b7bffffffffffffffffffffffffffffffffffffffffffffffffffffffff1916817bffffffffffffffffffffffffffffffffffffffffffffffffffffffff191614915050611fb8565b600190505b949350505050565b611fca838361202e565b611fd76000848484611e29565b612016576040517f08c379a000000000000000000000000000000000000000000000000000000000815260040161200d9061315d565b60405180910390fd5b505050565b600080823b905060008111915050919050565b600073ffffffffffffffffffffffffffffffffffffffff168273ffffffffffffffffffffffffffffffffffffffff16141561209e576040517f08c379a00000000000000000000000000000000000000000000000000000000081526004016120959061329d565b60405180910390fd5b6120a781611426565b156120e7576040517f08c379a00000000000000000000000000000000000000000000000000000000081526004016120de9061319d565b60405180910390fd5b6120f360008383611e24565b6001600460008473ffffffffffffffffffffffffffffffffffffffff1673ffffffffffffffffffffffffffffffffffffffff16815260200190815260200160002060008282546121439190613516565b92505081905550816003600083815260200190815260200160002060006101000a81548173ffffffffffffffffffffffffffffffffffffffff021916908373ffffffffffffffffffffffffffffffffffffffff160217905550808273ffffffffffffffffffffffffffffffffffffffff16600073ffffffffffffffffffffffffffffffffffffffff167fddf252ad1be2c89b69c2b068fc378daa952ba7f163c4a11628f55a4df523b3ef60405160405180910390a45050565b60405180606001604052806000815260200160008152602001606081525090565b82805461222990613694565b90600052602060002090601f01602090048101928261224b5760008555612292565b82601f1061226457805160ff1916838001178555612292565b82800160010185558215612292579182015b82811115612291578251825591602001919060010190612276565b5b50905061229f919061236f565b5090565b5080546122af90613694565b6000825580601f106122c157506122e0565b601f0160209004906000526020600020908101906122df919061236f565b5b50565b82805482825590600052602060002090600302810192821561235e5760005260206000209160030282015b8281111561235d5782826000820154816000015560018201548160010155600282018160020190805461234090613694565b61234b92919061238c565b5050509160030191906003019061230e565b5b50905061236b9190612419565b5090565b5b80821115612388576000816000905550600101612370565b5090565b82805461239890613694565b90600052602060002090601f0160209004810192826123ba5760008555612408565b82601f106123cb5780548555612408565b8280016001018555821561240857600052602060002091601f016020900482015b828111156124075782548255916001019190600101906123ec565b5b509050612415919061236f565b5090565b5b8082111561244c57600080820160009055600182016000905560028201600061244391906122a3565b5060030161241a565b5090565b600061246361245e84613429565b6133f8565b90508281526020810184848401111561247b57600080fd5b612486848285613652565b509392505050565b60006124a161249c84613459565b6133f8565b9050828152602081018484840111156124b957600080fd5b6124c4848285613652565b509392505050565b6000813590506124db8161380d565b92915050565b6000813590506124f081613824565b92915050565b6000813590506125058161383b565b92915050565b60008151905061251a8161383b565b92915050565b600082601f83011261253157600080fd5b8135612541848260208601612450565b91505092915050565b600082601f83011261255b57600080fd5b813561256b84826020860161248e565b91505092915050565b60008135905061258381613852565b92915050565b60008135905061259881613869565b92915050565b6000602082840312156125b057600080fd5b60006125be848285016124cc565b91505092915050565b600080604083850312156125da57600080fd5b60006125e8858286016124cc565b92505060206125f9858286016124cc565b9150509250929050565b60008060006060848603121561261857600080fd5b6000612626868287016124cc565b9350506020612637868287016124cc565b925050604061264886828701612574565b9150509250925092565b6000806000806080858703121561266857600080fd5b6000612676878288016124cc565b9450506020612687878288016124cc565b935050604061269887828801612574565b925050606085013567ffffffffffffffff8111156126b557600080fd5b6126c187828801612520565b91505092959194509250565b600080604083850312156126e057600080fd5b60006126ee858286016124cc565b92505060206126ff858286016124e1565b9150509250929050565b6000806040838503121561271c57600080fd5b600061272a858286016124cc565b925050602061273b85828601612574565b9150509250929050565b60006020828403121561275757600080fd5b6000612765848285016124f6565b91505092915050565b60006020828403121561278057600080fd5b600061278e8482850161250b565b91505092915050565b6000602082840312156127a957600080fd5b600082013567ffffffffffffffff8111156127c357600080fd5b6127cf8482850161254a565b91505092915050565b6000602082840312156127ea57600080fd5b60006127f884828501612574565b91505092915050565b60006020828403121561281357600080fd5b600061282184828501612589565b91505092915050565b60006128368383612fb5565b905092915050565b612847816135d1565b82525050565b600061285882613499565b61286281856134c7565b93508360208202850161287485613489565b8060005b858110156128b05784840389528151612891858261282a565b945061289c836134ba565b925060208a01995050600181019050612878565b50829750879550505050505092915050565b6128cb816135e3565b82525050565b60006128dc826134a4565b6128e681856134d8565b93506128f6818560208601613661565b6128ff816137fc565b840191505092915050565b6000612915826134af565b61291f81856134e9565b935061292f818560208601613661565b612938816137fc565b840191505092915050565b600061294e826134af565b61295881856134fa565b9350612968818560208601613661565b612971816137fc565b840191505092915050565b6000612987826134af565b612991818561350b565b93506129a1818560208601613661565b80840191505092915050565b60006129ba6032836134fa565b91507f4552433732313a207472616e7366657220746f206e6f6e20455243373231526560008301527f63656976657220696d706c656d656e74657200000000000000000000000000006020830152604082019050919050565b6000612a206026836134fa565b91507f4f776e61626c653a206e6577206f776e657220697320746865207a65726f206160008301527f64647265737300000000000000000000000000000000000000000000000000006020830152604082019050919050565b6000612a86601c836134fa565b91507f4552433732313a20746f6b656e20616c7265616479206d696e746564000000006000830152602082019050919050565b6000612ac66019836134fa565b91507f4f6e6c7920746f6b656e206f776e65722063616e206275726e000000000000006000830152602082019050919050565b6000612b066024836134fa565b91507f4552433732313a207472616e7366657220746f20746865207a65726f2061646460008301527f72657373000000000000000000000000000000000000000000000000000000006020830152604082019050919050565b6000612b6c6019836134fa565b91507f4552433732313a20617070726f766520746f2063616c6c6572000000000000006000830152602082019050919050565b6000612bac602c836134fa565b91507f4552433732313a206f70657261746f7220717565727920666f72206e6f6e657860008301527f697374656e7420746f6b656e00000000000000000000000000000000000000006020830152604082019050919050565b6000612c126038836134fa565b91507f4552433732313a20617070726f76652063616c6c6572206973206e6f74206f7760008301527f6e6572206e6f7220617070726f76656420666f7220616c6c00000000000000006020830152604082019050919050565b6000612c78602a836134fa565b91507f4552433732313a2062616c616e636520717565727920666f7220746865207a6560008301527f726f2061646472657373000000000000000000000000000000000000000000006020830152604082019050919050565b6000612cde6029836134fa565b91507f4552433732313a206f776e657220717565727920666f72206e6f6e657869737460008301527f656e7420746f6b656e00000000000000000000000000000000000000000000006020830152604082019050919050565b6000612d446020836134fa565b91507f4552433732313a206d696e7420746f20746865207a65726f20616464726573736000830152602082019050919050565b6000612d84602c836134fa565b91507f4552433732313a20617070726f76656420717565727920666f72206e6f6e657860008301527f697374656e7420746f6b656e00000000000000000000000000000000000000006020830152604082019050919050565b6000612dea6020836134fa565b91507f4f776e61626c653a2063616c6c6572206973206e6f7420746865206f776e65726000830152602082019050919050565b6000612e2a6029836134fa565b91507f4552433732313a207472616e73666572206f6620746f6b656e2074686174206960008301527f73206e6f74206f776e00000000000000000000000000000000000000000000006020830152604082019050919050565b6000612e90602f836134fa565b91507f4552433732314d657461646174613a2055524920717565727920666f72206e6f60008301527f6e6578697374656e7420746f6b656e00000000000000000000000000000000006020830152604082019050919050565b6000612ef66021836134fa565b91507f4552433732313a20617070726f76616c20746f2063757272656e74206f776e6560008301527f72000000000000000000000000000000000000000000000000000000000000006020830152604082019050919050565b6000612f5c6031836134fa565b91507f4552433732313a207472616e736665722063616c6c6572206973206e6f74206f60008301527f776e6572206e6f7220617070726f7665640000000000000000000000000000006020830152604082019050919050565b6000606083016000830151612fcd6000860182613055565b506020830151612fe06020860182613055565b5060408301518482036040860152612ff8828261290a565b9150508091505092915050565b600060608301600083015161301d6000860182613055565b5060208301516130306020860182613055565b5060408301518482036040860152613048828261290a565b9150508091505092915050565b61305e8161363b565b82525050565b61306d8161363b565b82525050565b600061307f828561297c565b915061308b828461297c565b91508190509392505050565b60006020820190506130ac600083018461283e565b92915050565b60006080820190506130c7600083018761283e565b6130d4602083018661283e565b6130e16040830185613064565b81810360608301526130f381846128d1565b905095945050505050565b60006020820190508181036000830152613118818461284d565b905092915050565b600060208201905061313560008301846128c2565b92915050565b600060208201905081810360008301526131558184612943565b905092915050565b60006020820190508181036000830152613176816129ad565b9050919050565b6000602082019050818103600083015261319681612a13565b9050919050565b600060208201905081810360008301526131b681612a79565b9050919050565b600060208201905081810360008301526131d681612ab9565b9050919050565b600060208201905081810360008301526131f681612af9565b9050919050565b6000602082019050818103600083015261321681612b5f565b9050919050565b6000602082019050818103600083015261323681612b9f565b9050919050565b6000602082019050818103600083015261325681612c05565b9050919050565b6000602082019050818103600083015261327681612c6b565b9050919050565b6000602082019050818103600083015261329681612cd1565b9050919050565b600060208201905081810360008301526132b681612d37565b9050919050565b600060208201905081810360008301526132d681612d77565b9050919050565b600060208201905081810360008301526132f681612ddd565b9050919050565b6000602082019050818103600083015261331681612e1d565b9050919050565b6000602082019050818103600083015261333681612e83565b9050919050565b6000602082019050818103600083015261335681612ee9565b9050919050565b6000602082019050818103600083015261337681612f4f565b9050919050565b600060208201905081810360008301526133978184613005565b905092915050565b60006020820190506133b46000830184613064565b92915050565b60006060820190506133cf6000830186613064565b6133dc6020830185613064565b81810360408301526133ee8184612943565b9050949350505050565b6000604051905081810181811067ffffffffffffffff8211171561341f5761341e6137cd565b5b8060405250919050565b600067ffffffffffffffff821115613444576134436137cd565b5b601f19601f8301169050602081019050919050565b600067ffffffffffffffff821115613474576134736137cd565b5b601f19601f8301169050602081019050919050565b6000819050602082019050919050565b600081519050919050565b600081519050919050565b600081519050919050565b6000602082019050919050565b600082825260208201905092915050565b600082825260208201905092915050565b600082825260208201905092915050565b600082825260208201905092915050565b600081905092915050565b60006135218261363b565b915061352c8361363b565b9250827fffffffffffffffffffffffffffffffffffffffffffffffffffffffffffffffff0382111561356157613560613740565b5b828201905092915050565b60006135778261363b565b91506135828361363b565b9250826135925761359161376f565b5b828204905092915050565b60006135a88261363b565b91506135b38361363b565b9250828210156135c6576135c5613740565b5b828203905092915050565b60006135dc8261361b565b9050919050565b60008115159050919050565b60007fffffffff0000000000000000000000000000000000000000000000000000000082169050919050565b600073ffffffffffffffffffffffffffffffffffffffff82169050919050565b6000819050919050565b600060ff82169050919050565b82818337600083830152505050565b60005b8381101561367f578082015181840152602081019050613664565b8381111561368e576000848401525b50505050565b600060028204905060018216806136ac57607f821691505b602082108114156136c0576136bf61379e565b5b50919050565b60006136d18261363b565b91507fffffffffffffffffffffffffffffffffffffffffffffffffffffffffffffffff82141561370457613703613740565b5b600182019050919050565b600061371a8261363b565b91506137258361363b565b9250826137355761373461376f565b5b828206905092915050565b7f4e487b7100000000000000000000000000000000000000000000000000000000600052601160045260246000fd5b7f4e487b7100000000000000000000000000000000000000000000000000000000600052601260045260246000fd5b7f4e487b7100000000000000000000000000000000000000000000000000000000600052602260045260246000fd5b7f4e487b7100000000000000000000000000000000000000000000000000000000600052604160045260246000fd5b6000601f19601f8301169050919050565b613816816135d1565b811461382157600080fd5b50565b61382d816135e3565b811461383857600080fd5b50565b613844816135ef565b811461384f57600080fd5b50565b61385b8161363b565b811461386657600080fd5b50565b61387281613645565b811461387d57600080fd5b5056fea26469706673582212205d99a3d7adedc3e9757955b8624a90048902b0e4203cbe245e242154e7abbb3a64736f6c63430008000033",
  "linkReferences": {},
  "deployedLinkReferences": {}
}